:020000040800F2
:1000000000040020510E0008BD040008C9040008C7
:10001000CF040008D5040008DB040008000000003D
:10002000000000000000000000000000E1040008E3
:10003000ED04000800000000F904000805050008B0
:10004000AD0E0008AD0E0008AD0E0008AD0E0008A4
:10005000AD0E0008AD0E0008AD0E0008AD0E000894
:10006000AD0E0008AD0E0008AD0E0008AD0E000884
:10007000AD0E0008AD0E0008AD0E0008AD0E000874
:10008000AD0E0008AD0E0008AD0E0008AD0E000864
:10009000AD0E0008AD0E0008AD0E0008AD0E000854
:1000A000AD0E0008AD0E0008AD0E0008AD0E000844
:1000B000AD0E0008AD0E0008AD0E0008AD0E000834
:1000C000AD0E0008AD0E0008AD0E0008AD0E000824
:1000D000AD0E000811050008AD0E0008AD0E0008B9
:1000E000AD0E0008AD0E0008AD0E0008AD0E000804
:1000F000AD0E0008AD0E0008AD0E0008AD0E0008F4
:10010000AD0E0008AD0E0008AD0E0008AD0E0008E3
:10011000AD0E0008AD0E0008AD0E0008AD0E0008D3
:10012000AD0E0008AD0E0008AD0E0008AD0E0008C3
:10013000AD0E0008AD0E0008AD0E0008AD0E0008B3
:10014000AD0E0008AD0E0008AD0E0008AD0E0008A3
:10015000AD0E0008AD0E0008AD0E0008AD0E000893
:10016000AD0E0008AD0E0008AD0E0008AD0E000883
:10017000AD0E0008AD0E0008AD0E0008AD0E000873
:08018000AD0E0008AD0E0008F1
:1001900010B5054C237833B9044B13B10448AFF3C1
:1001A00000800123237010BD7800002000000000B3
:1001B000D81F000808B5034B1BB103490348AFF330
:1001C000008008BD000000007C000020D81F00084F
:1001D00001F0FF01102A2BDB10F0070F08D010F8F8
:1001E000013B013A8B422DD010F0070F42B3F6D1FC
:1001F000F0B441EA012141EA014122F007047FF015
:1002000000070023F0E80256083C85EA010586EA6B
:10021000010685FA47F5A3FA87F586FA47F6A5FAA7
:1002200087F68EB9EED1F0BC01F0FF0102F00702B3
:1002300032B110F8013B013A83EA010313B1F8D15E
:100240000020704701387047002D06BF354603383F
:10025000073815F0010F07D1013015F4807F02BF78
:10026000013015F4C03F0130F0BC0138704700BFC9
:1002700080B598B000AF00F0F9F800F053F800F046
:1002800019F807F15003184600F05EFB3B46502278
:100290000021184600F030FE3A6D7B6D3846044967
:1002A00000F0A8FE3B46184600F09CFEEEE700BFBB
:1002B000F01F000880B582B000AF0121022000F0DD
:1002C000F1FB04233B6001233B710023BB7101233D
:1002D000FB7101237B713B461946054800F050FA3B
:1002E0000421034800F0DAFA00BF0837BD4680BD9C
:1002F0000004024080B582B000AF4FF4A06000F06F
:10030000CBF925233B7101237B710123BB710123B1
:10031000FB713B1D184600F0D1F900BF0837BD4600
:1003200080BD000080B586B000AF0121012000F043
:10033000B9FB0121102000F0D3FB07220A2123483A
:1003400000F0BAFA07220921204800F0B5FA00238C
:10035000BB750123FB7502237B7502233B754FF4AC
:1003600000733B6107F110031946184800F008FAC2
:1003700002233B754FF480633B6107F1100319467C
:10038000124800F0FDF94FF4E1333B600023BB80DD
:100390000023FB8000233B810023BB810C237B8156
:1003A0003B4619460A4800F0B9FBFFF7A3FF0122BC
:1003B00040F22551064800F0AAFC0121044800F053
:1003C00067FC00BF1837BD4680BD00BF000002407B
:1003D0000010014080B483B000AF03463960FB7168
:1003E00097F90730002B0BDA3B68DAB20C49FB793E
:1003F00003F00F03043B1201D2B20B441A7609E05A
:100400003B68DAB2074997F907301201D2B20B44C0
:1004100083F8002300BF0C37BD4680BC704700BF87
:1004200000ED00E000E100E080B582B000AF786050
:100430007B68013BB3F1807F01D301230FE00A4ABF
:100440007B68013B53600F214FF0FF30FFF7C2FF85
:10045000054B00229A60044B07221A6000231846BD
:100460000837BD4680BD00BF10E000E080B500AF9A
:10047000074B1B68074AA2FB03239B0C1846FFF798
:10048000D3FF0346002B00D0FEE700BF80BD00BFB6
:100490000000002083DE1B4380B400AF064B1B68C6
:1004A000002B04D0044B1B68013B034A136000BFC0
:1004B000BD4680BC704700BF9400002080B400AFF0
:1004C00000BFBD4680BC704780B400AFFEE780B47B
:1004D00000AFFEE780B400AFFEE780B400AFFEE7F8
:1004E00080B400AF00BFBD4680BC704780B400AF91
:1004F00000BFBD4680BC704780B400AF00BFBD46A2
:1005000080BC704780B500AFFFF7C6FF00BF80BD5D
:1005100080B582B000AF40F225510A4800F03EFCA1
:100520000346002B0AD0074800F0E2FB0346FB71AC
:10053000FB799BB21946034800F0C9FB00BF08379E
:10054000BD4680BD0010014080B500AF124B1B6856
:10055000114A43F0010313600F4B00229A600E4BC7
:100560001B680D4A23F0847323F4803313600A4B15
:100570000A4A5A60084B1B68074A23F48023136019
:10058000054B0022DA6000F00DF8054B4FF00062D9
:100590009A6000BF80BD00BF0038024010300024C8
:1005A00000ED00E080B483B000AF00237B60002347
:1005B0003B60354B1B68344A43F480331360324B45
:1005C0001B6803F400333B607B6801337B603B684E
:1005D000002B03D17B68B3F5A04FF0D12A4B1B68E9
:1005E00003F40033002B02D001233B6001E0002321
:1005F0003B603B68012B42D1234B1B6C224A43F0EA
:1006000080531364214B1B68204A43F4404313601A
:100610001D4B1D4A9B6893601B4B9B681A4A43F411
:1006200000439360184B9B68174A43F4A0539360B0
:10063000154B174A5A60144B1B68134A43F08073DA
:10064000136000BF104B1B6803F00073002BF9D040
:10065000104B40F205721A600B4B9B680A4A23F05C
:1006600003039360084B9B68074A43F002039360BF
:1006700000BF054B9B6803F00C03082BF9D100BFAA
:100680000C37BD4680BC7047003802400070004007
:1006900008544007003C024080B483B000AF78604B
:1006A000054A7B6843F0BF6343F40033D36000BF67
:1006B0000C37BD4680BC704700ED00E080B485B0CB
:1006C00000AF78600023FB730023BB730F237B73A1
:1006D0007B68DB78002B39D0274BDB68DB431B0AB8
:1006E000DBB203F00703FB73FB7BC3F10403BB73B3
:1006F0007A7BFB7B42FA03F37B737B685B781A4659
:10070000BB7B02FA03F3FB737B689A787B7B134015
:10071000DAB2FB7B1343FB73FB7B1B01FB73174AB2
:100720007B681B781344FA7B83F800237B681B7873
:1007300003F01F0311497A6812785209D2B21046A9
:10074000012202FA03F341F820300FE07B681B78A6
:1007500003F01F0309497A6812785209D2B2104691
:1007600001229A4000F1200341F8232000BF1437F2
:10077000BD4680BC704700BF00ED00E000E100E036
:1007800080B487B000AF7860396000237B610023BC
:100790003B610023FB6000237B6176E001227B69E3
:1007A00002FA03F33B613B681B683A691340FB6044
:1007B000FA683B699A4265D17B681A687B695B007D
:1007C000032101FA03F3DB431A407B681A607B685C
:1007D0001A683B681B7919467B695B0001FA03F3D1
:1007E0001A437B681A603B681B79012B03D03B6876
:1007F0001B79022B2ED17B689A687B695B000321F1
:1008000001FA03F3DB431A407B689A607B689A68BD
:100810003B685B7919467B695B0001FA03F31A4375
:100820007B689A607B685A687B699BB21946012392
:100830008B40DB431A407B685A607B685B683A6890
:10084000927911467A6992B201FA02F292B21A438F
:100850007B685A607B68DA687B699BB25B00032126
:1008600001FA03F3DB431A407B68DA607B68DA68DD
:100870003B68DB7919467B695B0001FA03F31A4395
:100880007B68DA607B6901337B617B690F2B85D9DB
:1008900000BF00BF1C37BD4680BC704780B483B02A
:1008A00000AF78600B467B807B687A881A8300BF34
:1008B0000C37BD4680BC704780B485B000AF78600F
:1008C0000B467B8013467B700023FB600023BB60DC
:1008D0007A787B8803F007039B0002FA03F3FB603E
:1008E0007B88DB089BB21A467B68083253F82220CB
:1008F0007B8803F007039B000F2101FA03F3DB431E
:100900007988C90889B2084602EA03017B6800F1C8
:10091000080243F822107B88DB089BB21A467B68EA
:10092000083253F82230FA681343BB607B88DB0837
:100930009BB21A467B680832B96843F8221000BFA0
:100940001437BD4680BC704780B489B000AF786072
:100950000023BB6100237B610023FB6102233B6119
:100960000023FB600223BB604A4B9B6803F00C032F
:10097000BB61BB69082B11D0BB69082B44D8BB698C
:10098000002B03D0BB69042B04D03DE07B68424AB6
:100990001A603DE07B68414A1A6039E03D4B5B6874
:1009A0009B0D03F00103FB603A4B5B6803F03F03D0
:1009B000BB60FB68002B0CD0384ABB68B2FBF3F37A
:1009C000344A52689209C2F3080202FB03F3FB6146
:1009D0000BE0314ABB68B2FBF3F32E4A526892092E
:1009E000C2F3080202FB03F3FB612A4B5B681B0C9A
:1009F00003F0030301335B003B61FA693B69B2FB1F
:100A0000F3F27B681A6003E07B68234A1A6000BF38
:100A1000204B9B6803F0F003BB61BB691B09BB6102
:100A20001F4ABB6913441B78DBB27B617B681A6881
:100A30007B69DA407B685A60164B9B6803F4E0538D
:100A4000BB61BB699B0ABB61154ABB6913441B7838
:100A5000DBB27B617B685A687B69DA407B689A60AD
:100A60000C4B9B6803F46043BB61BB695B0BBB61D0
:100A70000B4ABB6913441B78DBB27B617B685A6805
:100A80007B69DA407B68DA6000BF2437BD4680BCF2
:100A9000704700BF003802400024F40000127A00C2
:100AA0000400002080B483B000AF78600B46FB7078
:100AB000FB78002B06D0094B1A6B08497B6813435F
:100AC0000B6306E0054B1A6B7B68DB43034913405D
:100AD0000B6300BF0C37BD4680BC70470038024036
:100AE00080B483B000AF78600B46FB70FB78002BBE
:100AF00006D0094B5A6C08497B6813434B6406E0E7
:100B0000054B5A6C7B68DB43034913404B6400BFC1
:100B10000C37BD4680BC70470038024080B58AB0B3
:100B200000AF7860396000237B6200233B620023C2
:100B3000FB610023BB617B681B8A9BB27B627B6A83
:100B400023F440537B623B68DB881A467B6A13437D
:100B50007B627B6A9AB27B681A827B689B899BB2B4
:100B60007B627B6A23F4B05323F00C037B623B6807
:100B70009A883B681B8913439AB23B685B8913438D
:100B80009BB21A467B6A13437B627B6A9AB27B688C
:100B90009A817B689B8A9BB27B627B6A23F4407359
:100BA0007B623B689B891A467B6A13437B627B6A44
:100BB0009AB27B689A8207F108031846FFF7C4FED1
:100BC0007B68304A934203D07B682F4A934202D11C
:100BD0007B693B6201E03B693B627B689B899BB21E
:100BE0001BB2002B0CDA3A6A13469B0013449A009E
:100BF0001A443B681B685B00B2FBF3F3FB610BE03C
:100C00003A6A13469B0013449A001A443B681B68D7
:100C10009B00B2FBF3F3FB61FB691C4AA2FB0323BD
:100C20005B091B017B627B6A1B09642202FB03F3E5
:100C3000FA69D31ABB617B689B899BB21BB2002BFC
:100C40000CDABB69DB003233104AA2FB03235B09D9
:100C500003F007037A6A13437B620BE0BB691B0155
:100C600032330A4AA2FB03235B0903F00F037A6ABB
:100C700013437B627B6A9AB27B681A8100BF283774
:100C8000BD4680BD00100140001401401F85EB519E
:100C900080B483B000AF78600B46FB70FB78002B0C
:100CA00008D07B689B899BB243F400539AB27B685F
:100CB0009A8107E07B689B899BB223F400539AB228
:100CC0007B689A8100BF0C37BD4680BC704780B4FA
:100CD00083B000AF78600B467B807B88C3F308034A
:100CE0009AB27B689A8000BF0C37BD4680BC7047C3
:100CF00080B483B000AF78607B689B889BB2C3F3FD
:100D000008039BB218460C37BD4680BC704780B4C0
:100D100087B000AF78600B467B8013467B70002362
:100D20003B610023FB600023BB6000237B617B6889
:100D30007B617B88DBB25B09DBB23B617B8803F0C4
:100D40001F03FB600122FB6802FA03F3BB603B69EF
:100D5000012B03D17B690C337B6109E03B69022BDA
:100D600003D17B6910337B6102E07B6914337B61C3
:100D70007B78002B06D07B6919687B69BA680A43C7
:100D80001A6006E07B691968BB68DA437B690A4030
:100D90001A6000BF1C37BD4680BC704780B487B066
:100DA00000AF78600B467B800023FB6000237B61F3
:100DB0000023BB600023FB747B88DBB25B09DBB2E2
:100DC000BB607B8803F01F037B6101227B6902FA11
:100DD00003F37B61BB68012B07D17B689B899BB2C6
:100DE0001A467B6913407B6111E0BB68022B07D177
:100DF0007B681B8A9BB21A467B6913407B6106E0C5
:100E00007B689B8A9BB21A467B6913407B617B8817
:100E10001B0A9BB2FB600122FB6802FA03F3FB6032
:100E20007B681B889BB21A46FB681340FB607B699A
:100E3000002B05D0FB68002B02D00123FB7401E0DE
:100E40000023FB74FB7C18461C37BD4680BC7047F2
:100E5000DFF83CD0002103E00E4B5B5843500431D7
:100E60000D480E4B42189A42F6D30D4A02E0002379
:100E700042F8043B0B4B9A42F9D3FFF765FB00F0B5
:100E800017F8094880F30888FFF7F2F97047000067
:100E900000040020AC2000080000002078000020A2
:100EA00078000020B400002000000220FEE70000CF
:100EB00070B50D4D0D4C641BA4100026A64209D13F
:100EC0000B4D0C4C01F088F8641BA4100026A642C0
:100ED00005D170BD55F8043B98470136EEE755F84B
:100EE000043B98470136F2E7A4200008A42000083C
:100EF000A4200008A820000802440346934200D121
:100F0000704703F8011BF9E770B50E46054618B1A6
:100F100083690BB900F068FAAB69AC6813B928466D
:100F200000F062FA2C4B9C4220D16C68636EDB07A8
:100F300005D4A389980502D4A06D00F0F3FAA38923
:100F400019071DD52369DBB1013EA36816F8011FFF
:100F5000013BA36039BB002B38DA22460A21284620
:100F600000F068F8013011D00A2511E01B4B9C42BB
:100F700001D1AC68DAE71A4B9C4208BFEC68D5E7B0
:100F80002146284600F0A8F80028DDD04FF0FF35B4
:100F9000636EDA0705D4A3899B0502D4A06D00F027
:100FA000C2FA284670BD002B04DAA2699A4206DC18
:100FB0000A2904D023685A1C22601970C5E722460A
:100FC000284600F037F80130BFD1DFE723680A2553
:100FD0005A1C22601D70DBE73020000850200008FA
:100FE00010200008024B01461868FFF78DBF00BFB4
:100FF000140000200EB400B59CB01DAB029006900A
:101000006FF00041094807910491094953F8042BF6
:1010100005910068019302A900F0EEFB029B0022FB
:101020001A701CB05DF804EB03B070471400002088
:101030000802FFFFF8B50E461446054618B183694D
:101040000BB900F0D1F9214B9C422BD16C68A369FC
:10105000A360A3891A072FD523696BB3236920687E
:10106000C01A6369F6B28342374604DC214628463B
:1010700000F026F930BBA368013BA36023685A1C2B
:1010800022601E7063690130834204D0A389DB07AC
:1010900006D50A2E04D12146284600F011F988B958
:1010A0003846F8BD0A4B9C4201D1AC68CFE7094BEA
:1010B0009C4208BFEC68CAE72146284600F00CF8BD
:1010C0000028CBD04FF0FF37EAE700BF3020000800
:1010D0005020000810200008324B70B51D680646ED
:1010E0000C4625B1AB6913B9284600F07DF92E4BAB
:1010F0009C420FD16C68A389B4F90C2019072CD439
:10110000DD0611D40923336042F04003A3814FF080
:10111000FF303EE0254B9C4201D1AC68EBE7244B0D
:101120009C4208BFEC68E6E7580712D5616B41B1F5
:1011300004F14403994202D0304600F059FA0023EA
:101140006363A38923F02403A381002363602369DD
:101150002360A38943F00803A38123694BB9A389C2
:1011600003F42073B3F5007F03D02146304600F02E
:10117000FFF9A089B4F90C2010F001030AD0002374
:10118000A36063695B42A361236943B910F08000E7
:10119000BAD170BD810758BF6369A360F4E700202E
:1011A000F7E700BF1400002030200008502000089E
:1011B000102000088A892DE9F041054610070C46E9
:1011C00058D44B68002B05DC0B6C002B02DC002094
:1011D000BDE8F081E66A002EF9D0002312F48052B7
:1011E0002F682B6032D0606DA3895A0705D56368DC
:1011F000C01A636B0BB1236CC01A00230246E66A67
:10120000216A2846B047431CA38906D129681D29B5
:101210002CD82A4ACA40D60728D500226260D904B1
:101220002269226004D5421C01D12B6803B9606594
:10123000616B2F600029CAD004F14403994202D0A7
:10124000284600F0D5F900206063C1E7216A012338
:101250002846B047411CC7D12B68002BC4D01D2B9A
:1012600001D0162B01D12F60B1E7A38943F04003D1
:10127000A381ADE70F69002FA9D093070E6808BFBF
:101280004B690F6018BF0023A6EB07088B60B8F10D
:10129000000F9CDD216AA66A43463A462846B047BD
:1012A000002806DCA38943F04003A3814FF0FF3000
:1012B0008EE70744A8EB0008E9E700BF01004020E3
:1012C00038B50B6905460C4613B90025284638BDCC
:1012D00018B183690BB900F087F8144B9C421BD1FD
:1012E0006C68B4F90C30002BEFD0626ED00704D4D8
:1012F000990502D4A06D00F015F928462146FFF7A4
:1013000059FF636EDA070546E0D4A3899B05DDD457
:10131000A06D00F008F9D9E7054B9C4201D1AC68FB
:10132000DFE7044B9C4208BFEC68DAE73020000896
:101330005020000810200008002310B50446C0E922
:101340000033C0E90433836081814366C2818361D5
:10135000194608225C30FFF7CFFD054B6362054B51
:10136000A362054BE362054B2462236310BD00BFFB
:10137000411D0008631D00089B1D0008BF1D0008DB
:10138000014900F0AFB800BFC112000870B54A1E95
:10139000682555430E4605F1740100F077F90446BF
:1013A00040B10021C0E900160C30A06005F16802D0
:1013B000FFF7A2FD204670BD014800F0B3B800BFA2
:1013C000AC000020014800F0AEB800BFAC00002027
:1013D000014800F0A7B800BFA7000020014800F0B6
:1013E000A2B800BFA700002010B50446FFF7F0FF29
:1013F000A3691BB1BDE81040FFF7F0BFC4E9123389
:101400002365134B134A1B68A262A34204BF012346
:10141000A361204600F020F86060204600F01CF830
:10142000A060204600F018F80022E0600421606807
:10143000FFF782FFA06801220921FFF77DFFE06826
:1014400002221221FFF778FF0123A361D2E700BF38
:101450000C20000881130008F8B50746FFF7ACFF21
:101460001E4B1E68B36913B93046FFF7BDFF4836FF
:10147000D6E90134013B03D533680BB33668F7E78F
:10148000B4F90C50D5B9164BE36004F15800656609
:1014900000F047F8FFF796FFC4E90155C4E9045589
:1014A0002560A5610822294604F15C00FFF724FDB0
:1014B000C4E90D55C4E912552046F8BD6834D9E792
:1014C00004213846FFF762FF044630600028D5D17A
:1014D000FFF778FF0C233B60EEE700BF0C2000080D
:1014E0000100FFFF2DE9F8430646884600F1480455
:1014F0000027D4E90195B9F1010905D52468002C2C
:10150000F7D13846BDE8F883AB89012B07D9B5F987
:101510000E30013303D029463046C04707436835B3
:10152000E9E770477047704770B50E46B1F90E1085
:10153000002996B014461D4607DA00232B60B389B4
:101540001A0610D44FF480630EE06A4600F05EFC89
:101550000028F2DB019A02F47042A2F500535A42CD
:101560005A412A60EEE740230020236016B070BD88
:101570008B8973B59D0706460C4607D504F14703D2
:10158000236023610123636102B070BD01AB6A4631
:10159000FFF7CAFF00990546304600F077F848B9D2
:1015A000B4F90C309A05EFD423F0030343F002039F
:1015B000A381E3E70D4BB362A389206043F080036E
:1015C000A381009B6361019B20615BB1B4F90E10A4
:1015D000304600F02DFC28B1A38923F0030343F02B
:1015E0000103A381A0890543A581CDE781130008EC
:1015F00038B50546002945D051F8043C0C1F002B96
:10160000B8BFE41800F05EFC1F4A1368104633B9F7
:10161000636014602846BDE8384000F059BCA3421E
:101620000BD921686218934204BF1A685B68636033
:1016300004BF521822600460ECE71A465B680BB1E5
:10164000A342FAD911685018A0420BD12068014476
:10165000501883421160DDD118685B685360014403
:101660001160D7E702D90C232B60D3E7206821183B
:101670008B4204BF19685B68636004BF091821606E
:101680005460C7E738BD00BF98000020F8B5CD1CF6
:1016900025F0030508350C2D38BF0C25002D064616
:1016A00001DBA94203D90C2333600020F8BD00F010
:1016B00009FC21490A6814469CB9204F3B6823B9AC
:1016C0002146304600F02CFB38602946304600F0B9
:1016D00027FB431C23D10C233360304600F0F8FB7A
:1016E000E3E723685B1B17D40B2B03D923601C444F
:1016F000256004E06368A2420CBF0B605360304673
:1017000000F0E6FB04F10B00231D20F00700C21AD5
:10171000CCD01B1AA350C9E722466468CCE7C41C8E
:1017200024F00304A042E3D0211A304600F0F8FA76
:101730000130DDD1CFE700BF980000209C000020E1
:101740002DE9F0478E689E4282460C4690461F4621
:1017500038D88A8912F4906F32D025680969A5EBD0
:101760000109656905EB450505EBD57501334B446A
:101770006D109D4238BF1D46530531D52946FFF7F0
:1017800085FF064650B90C23CAF80030A38943F000
:101790004003A3814FF0FF30BDE8F08721694A463E
:1017A00000F068FBA38923F4906343F08003A381D6
:1017B000266165614E44A5EB09052660A5603E469D
:1017C000BE4200D93E4632462068414600F060FBEA
:1017D000A36822689B1B3244A36022600020DBE7E1
:1017E0002A4600F07BFB06460028E1D121695046DD
:1017F000FFF7FEFEC7E700002DE9F04F98468B8902
:101800001B069DB007460D4614460ED50B6963B9FD
:101810004021FFF73BFF2860286120B90C233B6083
:101820004FF0FF30D1E040236B6100230993202368
:101830008DF82930CDF80C803023DFF8A8818DF8A1
:101840002A304FF0010923469A4613F8012B0AB1BA
:10185000252AF9D1BAEB040B0BD05B462246294668
:101860003846FFF76DFF013000F0AA80099A5A440C
:1018700009929AF80030002B00F0A28000234FF06C
:10188000FF32CDE905230AF1010A049307938DF88D
:1018900053301A935446052214F8011B5148FEF7A1
:1018A00097FC049AD8B9D00644BF20238DF8533052
:1018B000110744BF2B238DF853309AF800302A2BA0
:1018C00015D0079A544600204FF00A0C214611F813
:1018D000013B303B092B4ED9B0B1079214E0A0EB8D
:1018E000080309FA03F313430493A246D2E7039BC8
:1018F000191D1B680391002BBBBF5B4242F0020223
:1019000007930793B8BF049223782E2B0CD16378EA
:101910002A2B35D1039B1A1D1B680392002BB8BFDD
:101920004FF0FF3302340593DFF8C8A0217803227B
:101930005046FEF74DFC40B14023A0EB0A0003FAED
:1019400000F0049B03430134049314F8011B264860
:101950008DF828100622FEF73BFC002838D0234BD8
:101960001BBB039B073323F0070308330393099B37
:101970003344099367E70CFB02320C460120A5E7CC
:1019800000230134059319464FF00A0C204610F845
:10199000012B303A092A03D9002BC5D00591C3E7A2
:1019A0000CFB012104460123F0E703AB00932A4618
:1019B0000F4B04A93846AFF30080421C0646D6D12F
:1019C000AB895B063FF52CAF09981DB0BDE8F08FE1
:1019D00003AB00932A46064B04A9384600F07AF878
:1019E000EBE700BF702000087A200008000000002C
:1019F00041170008762000082DE9F0471646994661
:101A00008A680B69DDF820809342B8BF13463360C3
:101A100091F8432007460C460AB10133336023682E
:101A2000990642BF336802333360256815F0060516
:101A300006D104F1190AE36832689B1AAB4226DC2E
:101A400094F84320131E226818BF012392062BD45A
:101A500004F1430249463846C04701301ED023688E
:101A6000E568326803F00603042B08BFAD1AA368CB
:101A700022690CBF25EAE57500259342C4BF9B1A75
:101A8000ED1800261A34B5421AD1002008E00123CF
:101A9000524649463846C047013003D14FF0FF3027
:101AA000BDE8F0870135C6E7E1185A1C302081F8FF
:101AB0004300224494F8451082F843100233C7E7EC
:101AC0000123224649463846C0470130E6D0013658
:101AD000D9E700002DE9FF470C469146277E0C9977
:101AE000782F80469A4604F1430207D8622F0AD81D
:101AF000002F00F0D880582F00F0A38004F1420698
:101B000084F842703AE0A7F16303152BF6D801A0E0
:101B100050F823F06D1B0008811B0008FD1A000817
:101B2000FD1A0008FD1A0008FD1A0008811B0008B4
:101B3000FD1A0008FD1A0008FD1A0008FD1A000829
:101B40008D1C0008B11B00086F1C0008FD1A00085E
:101B5000FD1A0008AF1C0008FD1A0008B11B0008A0
:101B6000FD1A0008FD1A0008771C00080B681A1DF2
:101B70001B680A6004F1420684F842300123A3E0A6
:101B8000256808682E0600F104030AD505680B6075
:101B9000002D03DA2D236D4284F843305E480A237A
:101BA00019E015F0400F05680B6018BF2DB2EFE784
:101BB0000B682568181D0860280601D51D6802E01D
:101BC0006906FBD51D8854486F2F0CBF08230A23D4
:101BD000002184F843106668A660002EA2BF216829
:101BE00021F0040121600DB9002E4DD01646B5FB41
:101BF000F3F103FB1157C75D06F8017D2F46BB4289
:101C00000D46F4D9082B0BD12368DF0708D52369CB
:101C100061689942DEBF302306F8013C06F1FF36C9
:101C2000921B2261CDF800A04B4603AA21464046F4
:101C3000FFF7E2FE01304CD14FF0FF3004B0BDE8B9
:101C4000F087354884F8457023680E681F0656F8FB
:101C5000045B0E6014D5D90744BF43F02003236012
:101C60001DB9236823F0200323601023B0E7236805
:101C700043F0200323607823284884F84530E3E7C5
:101C80005E0648BFADB2E6E71646BBE70B682668BE
:101C900060691D1D0D6035061B6801D5186002E0E6
:101CA0007106FBD51880002323611646BAE70B683E
:101CB0001A1D0A601E68626800213046FEF788FA25
:101CC00008B1801B606063682361002384F843309F
:101CD000A8E72369324649464046D0470130ABD099
:101CE00023689B0713D4E068039B9842B8BF18464B
:101CF000A4E70123324649464046D04701309BD0F5
:101D00000135E36803995B1AAB42F2DCEBE700258F
:101D100004F11906F5E700BF8120000892200008B1
:101D200038B5064D0023044608462B6000F03EF906
:101D3000431C02D12B6803B1236038BDB0000020E2
:101D400010B50C46B1F90E1000F0EEF80028ABBF4C
:101D5000636DA3891B1823F48053ACBF6365A38113
:101D600010BD2DE9F0411F468B89DB0505460C4669
:101D7000164605D5B1F90E100223002200F068F8CE
:101D8000A389B4F90E1023F48053A38132463B4655
:101D90002846BDE8F04100F017B810B50C46B1F97F
:101DA0000E1000F055F8431CA38915BF606523F49D
:101DB000805343F48053A38118BFA38110BDB1F9B0
:101DC0000E1000F013B8000038B5074D0446084661
:101DD000114600222A601A4600F0F6F8431C02D190
:101DE0002B6803B1236038BDB000002038B5064D24
:101DF0000023044608462B6000F0B0F8431C02D1D3
:101E00002B6803B1236038BDB000002038B5074D02
:101E100000230446084611462B6000F0A7F8431C37
:101E200002D12B6803B1236038BD00BFB000002091
:101E300038B5064D0023044608462B6000F09EF896
:101E4000431C02D12B6803B1236038BDB0000020D1
:101E500038B5074D04460846114600222A601A4646
:101E600000F094F8431C02D12B6803B1236038BD05
:101E7000B00000200A44914200F1FF3300D17047C6
:101E800010B511F8014B03F8014F9142F9D110BD83
:101E9000884210B501EB020402D98442234607D8D8
:101EA000431EA14208D011F8012B03F8012FF8E7D7
:101EB000024401468A4200D110BD13F8014D02F8D8
:101EC000014DF7E70148FFF72DBB00BFA800002038
:101ED0000148FFF728BB00BFA8000020F8B507465F
:101EE00014460E4621B9BDE8F8401146FFF7CEBBB7
:101EF00022B9FFF77DFB25462846F8BD00F026F8FD
:101F0000A0420FD221463846FFF7C0FB0546002805
:101F1000F2D031462246FFF7ADFF31463846FFF793
:101F200067FBE9E73546E7E738B5074D044608465D
:101F3000114600222A601A4600F030F8431C02D1F4
:101F40002B6803B1236038BDB000002051F8043C79
:101F5000181F002BBCBF0B58C0187047024B5822EB
:101F60001A604FF0FF307047B0000020024B58223B
:101F70001A604FF0FF307047B0000020024B58222B
:101F80001A600020704700BFB0000020024B5822AA
:101F90001A604FF0FF307047B0000020024B58220B
:101FA0001A604FF0FF307047B0000020044A054926
:101FB0001368002B08BF0B46184410601846704782
:101FC000A0000020B8000020024B58221A604FF0F9
:101FD000FF307047B0000020F8B500BFF8BC08BC67
:101FE0009E467047F8B500BFF8BC08BC9E467047D7
:101FF00053595354454D20434C4B3A25640A2041D4
:10200000484231434C4B3A25640A00001800002036
:1020100000000000000000000000000000000000C0
:1020200000000000000000000000000000000000B0
:1020300000000000000000000000000000000000A0
:102040000000000000000000000000000000000090
:102050000000000000000000000000000000000080
:102060000000000000000000000000000000000070
:10207000232D302B2000686C4C0065666745464771
:1020800000303132333435363738394142434445F4
:102090004600303132333435363738396162636463
:0420A0006566000071
:0420A400B50100087A
:0420A800910100089A
:1020AC00007A030A00000000010203040102030489
:1020BC000607080918000020000000003020000866
:1020CC005020000810200008000000000000000054
:1020DC0000000000000000000000000000000000F4
:1020EC0000000000000000000000000000000000E4
:1020FC0000000000000000000000000000000000D4
:10210C0000000000000000000000000000000000C3
:08211C000000000000000000BB
:0400000508000E5190
:00000001FF
